:020000040800F2
:102000009804002001210008973000083F300008A4
:10201000953000087D2100086934000800000000A8
:102020000000000000000000000000009B300008DD
:102030007F21000800000000993000089D30000852
:102040001B2100081B2100081B2100081B21000880
:102050001B2100081B2100081B2100081B21000870
:102060001B2100081B2100081B2100081B21000860
:102070001B2100081B2100081B2100081B21000850
:102080001B2100081B2100081B2100081B21000840
:102090001B2100081B2100081B2100081B21000830
:1020A0001B2100081B2100081B2100081B21000820
:1020B0001B210008393100081B2100081B210008E2
:1020C0001B2100081B2100081B2100081B21000800
:1020D0001B2100081B2100085D3400081B2100089B
:1020E0001B2100081B2100081B210008DFF80CD071
:1020F00000F032F800480047A93400089804002096
:102100000648804706480047FEE7FEE7FEE7FEE791
:10211000FEE7FEE7FEE7FEE7FEE7FEE7F130000838
:10212000ED200008D2B201E000F8012B491EFBD2DD
:1021300070470022F6E710B513460A4604461946D2
:10214000FFF7F0FF204610BD421C10F8011B0029CC
:10215000FBD1801A70470000064C074D06E0E0688E
:1021600040F0010394E8070098471034AC42F6D3DE
:10217000FFF7C0FF90350008B0350008FEE7704754
:1021800010B590F821100024022903D004218163A6
:1021900001243DE001680A6822F00E020A6001682D
:1021A0000A6822F001020A601A4A0168914201D1CC
:1021B000012121E0174A1432914201D110211BE084
:1021C000144A2832914201D1891515E0114A3C3256
:1021D000914201D189140FE00E4A5032914202D14E
:1021E0004FF4803108E00B4A6432914202D14FF43F
:1021F000801101E04FF08071064A083A51600121D8
:1022000080F82110002180F82010416B01B188472F
:10221000204610BD0800024070B5044600F0FEF8EC
:102220000546601C02D004480078044400F0F6F82B
:10223000401BA042FAD370BD040000202DE9F84FE6
:10224000DFF8B891002409F1040A0AF1040B2346CF
:102250000F270BF1040EC9E00125A5402A40AA4230
:102260007DD1674ED1F804C0ACEB0608B44532D03E
:1022700014DCBCF1030F3AD009DCBCF1000F2AD00A
:10228000BCF1010F1CD0BCF1020F31D11DE0BCF13B
:10229000110F17D0BCF1120F2AD119E0B8F5881F21
:1022A00019D006DCB8F5803F15D0B8F5801F1FD1D6
:1022B00011E0B8F5001F0ED0B8F5041F18D10AE0E0
:1022C000CB6815E0CB681B1D12E0CB6808330FE02C
:1022D000CB680C330CE08B682BB1012B4FF008035B
:1022E00003D0456104E0042302E0056100E000231F
:1022F000FF2A01D8064601E000F104064FEA8405F2
:1023000001D9A5F12005D6F8008007FA05FC28EAD6
:102310000C0803FA05F548EA0508C6F800804D6880
:10232000ED0062D5374DAE6946F00106AE61AD698C
:1023300024F0030605F001050095334D06EB050C6E
:10234000DCF80850A607360F07FA06F825EA080554
:10235000DFF8B880404503D14FF0000817E044E0B3
:10236000DFF8AC80404502D14FF001080FE0DFF804
:10237000A480404502D14FF0020808E0DFF89880C1
:10238000404502D14FF0030801E04FF0040808FA7D
:1023900006F848EA0508CCF808804D68D9F80060CE
:1023A000ED034D4601D5164300E096432E604D687F
:1023B000DAF80060AD03554601D5164300E09643B8
:1023C0002E604D68DBF80060ED025D4601D51643D6
:1023D00000E096432E604D68DEF80060AD02754661
:1023E00001D5164300E096432E60641C0D682A4612
:1023F000E5407FF431AFBDE8F88F000000040140F4
:1024000000001110001002400000014000080140CF
:10241000000C014000100140001401400148806898
:1024200070470000040000200248816802781144CF
:102430008160704704000020074810B5016841F032
:1024400010010160032000F06DF8002000F006F894
:1024500000F024F8002010BD0020024070B50D4DA2
:1024600004464FF47A712878B1FBF0F00A49096804
:10247000B1FBF0F000F0E4FA48B9102C07D20022CA
:102480002146501E00F02EF800206C6070BD012027
:1024900070BD00000400002010000020094808B5AD
:1024A000816941F001018161816901F001010091BF
:1024B000C16941F08051C161C06900F08050009055
:1024C00008BD000000100240002809DB00F01F02D8
:1024D000012191404009800000F1E020C0F8001186
:1024E00070470000F0B40E4B1B680C46C3F3022388
:1024F000C3F10705042D00D90425191D072901D2B0
:10250000002300E0DB1E012606FA05F1491E2140EA
:1025100099409E40761E16403143F0BC00F0A5BFA6
:102520000CED00E0064900F0070208684FF6FF03D3
:10253000184040EA0220034A104308607047000038
:102540000CED00E00000FA052DE9F0470F4605000C
:1025500061D0434E306800F00700B84209D23068BD
:1025600020F0070038433060306800F00700B842C0
:1025700051D128683B4C810712D5400703D56068CC
:1025800040F4E06060602878000703D5606840F49C
:10259000605060606068A96820F0F00008436060E7
:1025A0002878C00728D06868012810D02168022840
:1025B00010D0890700292EDA616821F00301014358
:1025C0006160FFF72BFF804641F288390DE02168FA
:1025D0008903EFE78901EDE7FFF720FFA0EB080192
:1025E000494502D90320BDE8F0876068696800F0BA
:1025F0000C00B0EB810FEFD1306800F00700B8425B
:102600000BD9306820F0070038433060306800F0A4
:102610000700B84201D00120E5E72878400705D53A
:102620006068E96820F4E06008436060287800078B
:1026300006D56068296920F4605040EAC1006060F6
:1026400000F038F86168084AC1F30311515CC840D2
:102650000649086006480068FFF700FF0020C2E74F
:102660000020024000100240443500081000002005
:10267000080000200448054900684968044AC1F37D
:102680000221515CC8407047100000200010024039
:10269000543500080448054900684968044AC1F3F4
:1026A000C221515CC8407047100000200010024059
:1026B0005435000812A185B00FC98DE80F0014A091
:1026C000144A006804905168134801F00C03042B6D
:1026D00010D0082B0ED1C1F38343C9031DF80300AA
:1026E0000AD5516804AAC1F34041515C0A4A5043DB
:1026F000B0FBF1F005B0704708494843FAE7000025
:1027000002030405060708090A0B0C0D0E0F101032
:10271000010200000010024000127A0000093D0092
:102720002DE9F84F040070D02078C04DC00749D083
:102730006868C0F38100012807D06868C0F3810091
:10274000022809D16868C00306D52868800339D5F6
:1027500060680028E7D035E06068B0F5803F0BD0B6
:1027600010B1B0F5A02F11D0286820F48030286077
:10277000286820F4802002E0286840F48030286037
:10278000606890B1FFF74AFE06460AE0286840F408
:1027900080202860F0E700BFFFF740FE801B642820
:1027A00073D828688003F7D50CE0FFF737FE06469C
:1027B00005E000BFFFF732FE801B6428F0D82868D0
:1027C0008003F7D420789A4E80074FF001094FF02C
:1027D000000839D5686810F00C0F07D06868C0F39E
:1027E0008100022809D16868C00306D428688007E0
:1027F00014D52069012808D110E02069B0B1C6F8CD
:102800000090FFF70BFE074605E00AE1FFF706FE22
:10281000C01B0228C4D828688007F7D528686169DA
:1028200020F0F80040EAC10028600DE0C6F8008002
:10283000FFF7F4FD074604E0FFF7F0FDC01B022898
:1028400023D828688007F7D4207800072CD579484A
:10285000A169D9B1C0F80090FFF7E0FD074604E098
:10286000FFF7DCFDC01B02280FD8686A8007F7D588
:1028700071484FF4FA510068B0FBF1F0009000BFCE
:102880000098411E0091FAD20EE080E0C0F800806E
:10289000FFF7C4FD074604E0FFF7C0FDC01B022898
:1028A00075D8686A8007F7D42078400760D5E86952
:1028B0000027C00008D4E86940F08050E861E8696A
:1028C000012700F0805000905C480168C90513D4CE
:1028D0000168834641F480710160FFF79FFD8246E5
:1028E00006E000BFFFF79AFDA0EB0A0064284ED86F
:1028F000DBF80000C005F5D5E06801280AD008B172
:10290000052813D0286A20F001002862286A20F0E8
:10291000040002E0286A40F001002862E06841F209
:10292000883B98B1FFF77AFD82460BE0286A40F0B9
:1029300004002862EEE700BFFFF770FDA0EB0A017C
:1029400059455AD8286A8007F6D50CE0FFF766FD8E
:10295000824605E0FFF762FDA0EB0A0159454CD81D
:10296000286A8007F6D41FB1E86920F08050E8613A
:10297000E06988B36968C1F38101022944D0022863
:10298000C6F8608004D0FFF749FD044638E034E023
:10299000FFF744FD074604E0FFF740FDC01B022897
:1029A0002BD828688001F7D4206AB0F5803F05D184
:1029B0006868A16820F4003008436860D4E9080121
:1029C0000843696821F4741108436860C6F8609090
:1029D000FFF724FD044606E025E000BFFFF71EFDDB
:1029E000001B022809D828688001F7D51BE000BF2A
:1029F000FFF714FD001B022802D90320BDE8F88F61
:102A000028688001F4D40EE00128F7D06868226AB3
:102A100000F48031914204D1616A00F47010884260
:102A200001D00120EAE70020E8E7000000100240A2
:102A3000000042428004424210000020007000402A
:102A400010B5401EB0F1807F01D3012010BD4FF0C2
:102A5000E02460610F21601700F007FD0020A061F5
:102A600007202061002010BD7047704770B590F8B6
:102A70003C20012A19D0012400F83C4F0222427068
:102A800050F83C3C5A689D6822F070060A68496814
:102A9000324325F0800529435A6050F83C2C916060
:102AA000447000210170084670BD022070BD10B551
:102AB000040003D094F83D0010B107E0012010BDE0
:102AC000002084F83C00204600F00CF8022084F836
:102AD0003D00211D206800F035FB012084F83D00F9
:102AE000002010BD08B500680B49884212D10B4880
:102AF000C16941F00201C161C069002200F0020019
:102B0000009011461D20FFF7EDFCBDE808401D2098
:102B1000FFF7DABC08BD00000004004000100240CE
:102B20000168CA6842F00102CA600068816801F069
:102B30000701062903D0016841F00101016000206E
:102B4000704770B5044690F83C00012817D0012565
:102B500084F83C50022084F83D002068826822F00E
:102B6000770222F47F4282600868502830D00DDC62
:102B700020284DD005DC98B310283BD148E0022036
:102B800070BD302844D0402834D139E0602828D0A6
:102B9000702806D0B0F5805F2CD0B0F5005F29D149
:102BA0000AE0CB68D1E90121206800F001FB206830
:102BB000816841F0770109E0CB68D1E90121206803
:102BC00000F0F6FA2068816841F48041816011E0EC
:102BD000CA684968206800F0FDFA5021206807E0C3
:102BE00016E0CA684968206800F005FB602120688B
:102BF00000F0E8FA84F83D50002084F83C0070BDF5
:102C0000CA684968206800F0E5FA40212068EFE7CB
:102C1000226801461046EBE7704770B5044600682D
:102C200001694FF00005C943890715D4C168C9433C
:102C3000890711D4E91E016101202077206880698D
:102C40008007204602D0FFF7E7FF04E000F098F885
:102C5000204600F096F8257720680169C9434907A6
:102C600017D4C168C943490713D46FF00401016147
:102C7000022020772068806910F4407F204602D02F
:102C8000FFF7CAFF04E000F07BF8204600F079F877
:102C9000257720680169C943090716D4C168C9436B
:102CA000090712D46FF00801016104202077206821
:102CB000C0698007204602D0FFF7AEFF04E000F0B5
:102CC0005FF8204600F05DF8257720680169C94368
:102CD000C90617D4C168C943C90613D46FF01001DF
:102CE0000161082020772068C06910F4407F2046E9
:102CF00002D0FFF791FF04E000F042F8204600F018
:102D000040F8257720680169C943C90708D1C1681F
:102D1000C943C90704D1891E0161204600F032F879
:102D200020680169C943090609D4C168C943090675
:102D300005D46FF0800101612046FFF795FE206801
:102D40000169C943490609D4C168C943490605D484
:102D50006FF040010161204600F015F8206801691C
:102D6000C94389060BD4C168C943890607D46FF0EB
:102D7000200101612046BDE87040FFF776BE70BDBE
:102D800070477047704770477047000070B5026821
:102D900004461068D168536910F00F0F50D003F04B
:102DA000010501F4907635435DD0C20705D0CA0510
:102DB00003D5E26B42F00102E263420705D5DA0770
:102DC00003D0E26B42F00202E263820705D5DA0724
:102DD00003D0E26B42F00402E263020705D5DA0792
:102DE00003D0E26B42F00802E263E26B002A33D0C8
:102DF000800604D5880602D5204600F024FA206813
:102E00004069E16BC0F38010090700D428B3204665
:102E100000F00BFA2068416949061AD5416921F092
:102E200040014161606BA0B11B494163606BFFF7DA
:102E3000A7F9002810D0606B416BBDE870400847CF
:102E4000830610D58B060ED52046BDE8704000F0F5
:102E5000FAB92046FFF798FF70BD2046FFF794FFB0
:102E60000020E06370BD030606D50B0604D520469E
:102E7000BDE8704000F08EBA4006F3D54806F1D5A3
:102E8000D168204621F04001D160202184F839101A
:102E900000F0D4F870BD00001B32000870B50400CB
:102EA00004D094F83900002510B106E0012070BD6F
:102EB00084F83850204600F023F8242084F83900A4
:102EC0002068C16821F40051C160204600F006FA74
:102ED0002068016921F4904101612068416921F075
:102EE0002A0141612068C16841F40051C160E56375
:102EF000202084F8390084F83A00002070BD0000DA
:102F000030B585B0002400940194029403940068C5
:102F1000184988422BD11848C16941F40031C16178
:102F2000C16901F400310491816941F004018161BA
:102F30008069124D00F004000490042000900220EB
:102F400001900320039069462846FFF777F908208F
:102F5000CDE90004694628460294FFF76FF9002284
:102F600011462620FFF7BEFA2620FFF7ADFA05B07E
:102F700030BD000000440040001002400008014045
:102F800070472DE9F843044690F839001F4616466D
:102F90000D46202850D1A5B19EB194F838000128E3
:102FA0004AD0012084F838004FF00008C4F83C8073
:102FB000212084F83900FFF731FAA6848146E6849F
:102FC00026E00120BDE8F883E08C401EE084A06884
:102FD0004B46B0F5805F4FF000024FF08001204675
:102FE000009703D000F007FAE8B90DE000F003FA0B
:102FF000C8B928882168C0F308004860206908B172
:103000006D1C05E0AD1C03E0216815F8010B48605C
:10301000E08C0028D8D14B46002240212046009762
:1030200000F0E9F908B10320CCE7202084F839004A
:1030300084F838800020C5E70220C3E77047FEE728
:1030400010B586B0002412480094019402940394B1
:1030500004940E490594016041F61F41C0E9011432
:1030600042F21071C0E903148461FFF720FD4FF4B0
:103070008050009069460648FFF763FD049404A958
:1030800003480594FFF7F2FC06B010BD00040040B1
:1030900014000020FEE7704770477047FFF7C4B97F
:1030A00030B58FB028216846FFF743F814210AA8ED
:1030B000FFF73FF801210804CDE900100024029435
:1030C00002250491CDE907504FF4E01009906846BD
:1030D000FFF726FB0F20CDE90A056802CDE90C4079
:1030E00002210AA80E94FFF72FFA0FB030BD00009E
:1030F0000D48016841F00101016041680B4A11402F
:10310000416001680A4A11400160016821F4802190
:103110000160416821F4FE0141604FF41F018160AC
:103120000449C00308607047001002400000FFF827
:10313000FFFFF6FE08ED00E00148FFF76EBD00005E
:1031400014000020F0B50268164B174C174D4FF0D5
:103150008047984205D0B84203D0A04201D0A8428F
:1031600003D122F070064A683243984205D0B84233
:1031700003D0A04201D0A84203D122F44074CA680F
:1031800022434C6922F08002224302608A68C262B4
:103190000A688262984201D1096901630121416193
:1031A000F0BD0000002C0140000400400008004079
:1031B00010B5846842EA032224F47F440A43224380
:1031C000826010BD826822F070020A4342F007015B
:1031D0008160704710B5036A046A24F00104046238
:1031E000846924F0F00444EA021423F00A020A433A
:1031F0008461026210BD10B5036A23F010030362FC
:103200008369046A23F4704343EA023224F0A00382
:1032100043EA01118261016210BD10B5406A0021CC
:10322000C185C184FFF7B0FD10BD0168CA6822F4F2
:103230009072CA6001684A6922F001024A61202145
:1032400080F83A10704710B590F83A10222901D052
:10325000022010BD8168B1F5805F11D0016900299D
:1032600001681FD0496801F07F03816A4A1C8262AD
:103270000B70C18D491E0904090CC18518D02BE0C3
:103280000269816A002A0268526805D0D2B20A80B7
:10329000816A491C8162ECE7C2F308020A80816AF4
:1032A000891CF7E74A68816A4B1C83620A70E0E771
:1032B0000168CA6822F02002CA600168CA6822F464
:1032C0008072CA6001684A6922F001024A612021C5
:1032D00080F83A10FFF754FE002010BD2DE9F041B0
:1032E000044600680169E26821F44051114301611C
:1032F0002169A0680843616908432168CA6841F2EE
:103300000C639A430243CA6020684169A26921F4B0
:103310004071114341611E4920686425322688426C
:1033200002D1FFF7B7F901E0FFF7A4F900EBC00104
:1033300001EB001160686FF018078000B1FBF0F23C
:10334000B2FBF5F2B1FBF0F37A4303EB8202B1FB7F
:10335000F0F306EB0212B2FBF5F2B3FBF5F302F069
:10336000F00202EB0312B1FBF0F3B1FBF0F0B0FBA3
:10337000F5F0784303EB800006EB0010B0FBF5F0AE
:10338000216800F00F0010448860BDE8F081000063
:103390000038014090F83910212901D002207047EF
:1033A0008168B1F5805F016A0BD04A1C0262026835
:1033B00009785160C18C491E0904090CC1840ED0E2
:1033C00017E009880268C1F308015160016900290A
:1033D000016A02D0491C0162ECE7891CFBE7016825
:1033E000CA6822F08002CA600068C16841F04001EA
:1033F000C160002070472DE9F041984617460E46FF
:103400000446069D1DE0681C1BD02DB1FFF706F891
:10341000A0EB0800A84214D92068C16821F4D0713B
:10342000C1602068416921F001014161202084F8D8
:10343000390084F83A00002084F838000320BDE801
:10344000F0812068006836EA000004D00020B8420D
:10345000D9D00020F3E70120F9E700000148FFF789
:1034600095BC000054000020FEE70907090E002863
:1034700004DB00F1E02080F80014704700F00F003A
:1034800000F1E02080F8141D704702E008C8121F08
:1034900008C1002AFAD170477047002001E001C13D
:1034A000121F002AFBD17047214908B51F48086048
:1034B00062B6FEF7C1FFFFF7F3FD1E48816941F0D8
:1034C00020018161816901F020010091816941F051
:1034D000040181618069184900F0040000901748D8
:1034E0000C2201604FF41651416000218160C160DF
:1034F000C0E904128161C161FFF7D0FCFFF7A0FDB4
:103500000E484038FFF70CFB0D4C42F210754FF49B
:10351000FA762068FEF718FE82B22B46074821682B
:10352000FFF72FFD3046FEF777FEF2E70020000898
:1035300008ED00E00010024000440040540000206C
:103540000000002000000000000000000102030451
:1035500006070809000000000102030444656D6FBE
:10356000204368756F6E67207472696E6820626FA1
:103570006F74206C6F61726465722C206E617020B4
:10358000636F64652071756120554152540D0A00C6
:10359000B035000800000020140000008A34000844
:1035A000C435000814000020840400009A34000888
:1035B0005C35000801000000100000000000000061
:0435C0000024F400EF
:04000005080020EDE2
:00000001FF
