:020000040800F2
:100000001034002091010008990100089B010008AC
:100010009D0100089F010008A101000800000000E8
:10002000000000000000000000000000A301000824
:10003000A501000800000000A7010008A9010008B0
:10004000AB010008AB010008AB010008AB010008E0
:10005000AB010008AB010008AB010008AB010008D0
:10006000AB010008AB010008AB010008AB010008C0
:10007000AB010008AB010008AB010008AB010008B0
:10008000AB010008AB010008AB010008AB010008A0
:10009000AB010008AB010008AB010008AB01000890
:1000A000AB010008AB010008AB010008AB01000880
:1000B000B10C0008AB010008AB010008AB0100085F
:1000C000AB010008AB010008AB010008AB01000860
:1000D000AB010008590E000895100008FD1000083B
:1000E000AB010008AB010008AB01000800F002F80A
:1000F00000F03AF80AA090E8000C82448344AAF188
:100100000107DA4501D100F02FF8AFF2090EBAE885
:100110000F0013F0010F18BFFB1A43F0010318473B
:100120000C1500002C150000103A24BF78C878C1C7
:10013000FAD8520724BF30C830C144BF04680C60ED
:10014000704700000023002400250026103A28BF35
:1001500078C1FBD8520728BF30C148BF0B60704739
:100160001FB51FBD10B510BD00F07EF81146FFF79A
:10017000F7FF01F031FA00F09CF803B4FFF7F2FF4B
:1001800003BC00F0A3F8000080F30888704700006B
:100190000948804709480047FEE7FEE7FEE7FEE71B
:1001A000FEE7FEE7FEE7FEE7FEE7FEE70448054957
:1001B000054A064B70470000510C0008ED0000088E
:1001C000102E0020103400201030002010300020AD
:1001D0004FF000020429C0F0128010F0030C00F070
:1001E0001E80CCF1040CBCF1020F18BF00F8012BEB
:1001F000A8BF20F8022BA1EB0C0100F010B85FEAB9
:10020000C17C24BF00F8012B00F8012B48BF00F887
:10021000012B70477047704770474FF0000200B5E0
:10022000134694469646203922BFA0E80C50A0E819
:100230000C50B1F12001BFF4F7AF090728BFA0E8C7
:100240000C5048BF0CC05DF804EB890028BF40F893
:10025000042B08BF704748BF20F8022B11F0804FD5
:1002600018BF00F8012B7047754600F02BF8AE461A
:1002700005006946534620F00700854618B020B5B2
:10028000FFF794FFBDE820404FF000064FF0000755
:100290004FF000084FF0000B21F00701AC46ACE82E
:1002A000C009ACE8C009ACE8C009ACE8C0098D469B
:1002B000704710B50446AFF300802046BDE81040FB
:1002C000FFF75BBF00487047AC2D002001491820A4
:1002D000ABBEFEE726000200704730B502460B4673
:1002E0004FF6FF700021002400BF12E0555C68400B
:1002F00008240AE000F0010525B140104AF201058A
:10030000684000E04010651EACB2002CF2D14D1CDC
:10031000A9B29942EADB30BD00200149087070475C
:100320002000002010B500200649A1F80A01A1F81C
:100330000C0181F80E0140F209110248FFF748FF55
:1003400010BD00002401002038B5534890F80E017C
:1003500001287DD10020504981F80E014F480078D6
:10036000012806D002281CD003283FD0042817D12A
:1003700078E0494C607858B9207988B9484800F04D
:1003800037F902204549087001204649087007E006
:1003900043484549086000204449086044490860D2
:1003A00077E03D484178022919D103213B4A117079
:1003B000014609798DF80010014649798DF8011040
:1003C000014689798DF802100146C9798DF803102C
:1003D000374A009911600321324A117005E000216B
:1003E000334A116001212D4A117052E003202D493A
:1003F000087029484078012833D1274880788DF843
:1004000000002548C0788DF80100BDF8000029499A
:100410000860002406E02049201D085C2649085594
:10042000601CC4B2234800688442F4D3224D2148A2
:100430000068820829461C4800F000F91A48006844
:100440001749401A1949086008460068184900E031
:1004500020E00968884204D304201049087011493B
:10046000087016E00C4C607850B9207901280FD143
:1004700005200C49087001200849087000F01EF89A
:1004800006200849087001200449087000F0CEF8E1
:1004900000BF00BF38BD0000240100202100002063
:1004A00000800008220000203400002038000020D6
:1004B000300000202C000020340200201CB5134D19
:1004C0001348019013480090284600F091F8124814
:1004D0001249486012484860002409E001A800F071
:1004E0006DF906463146284600F0DCF82D1D641CE7
:1004F0000C480068B4EB900FF0D3009800F036F988
:100500000021684600F062F900F0E8FF00400008B2
:100510000080000800C00108230167450020024058
:10052000AB89EFCD3000002010B500F083F800203B
:1005300003490870012003490870FFF7F3FE10BD5E
:10054000240100202100002000200549A1F80A0113
:10055000A1F80C0181F80E010249087070470000F3
:10056000240100202000002010B5FFF7EDFE10BD93
:1005700030B5044604254FF4302000F0D5F8054688
:10058000042D17D10C48006940F002000A490861A7
:1005900008464461006940F0400008614FF4302093
:1005A00000F0C2F805460448006941F6FD710840B4
:1005B00001490861284630BD0020024004200B4953
:1005C000C96801F0010109B101200EE00749C968BD
:1005D00001F0040109B1022007E00449C96801F0F3
:1005E000100109B1032000E0042070470020024000
:1005F0002DE9F041054600244FF48046304600F0D6
:10060000CCF907464FF0040800BF07E04FF48061C3
:1006100001FB0450FFF7ACFF8046641CBC4202D2D1
:10062000B8F1040FF2D00020BDE8F08110B500F061
:100630002FF810BD10B500F06BF810BD2DE9F0419A
:1006400004460E461746002500BF16E056F8251052
:10065000206800F027F804280CD12068006856F8BC
:100660002510884202D00220BDE8F0812068001DDC
:10067000206001E00120F7E76D1CBD4203D2206835
:1006800002498842E2D90020EEE70000FBFF0108A2
:100690000348006940F0800001490861704700008C
:1006A0000020024078B506460C4604250020009044
:1006B000E80200F039F80546042D24D113480069FA
:1006C00040F00100114908613480E80200F02CF884
:1006D0000546042D10D1B01C0090200C0099088014
:1006E000E80200F021F805460848006941F6FE716D
:1006F00008400649086106E00448006941F6FE71B9
:10070000084002490861284678BD000000200240E8
:100710000248034948600348486070472301674521
:1007200000200240AB89EFCD00B502460423FFF75D
:1007300045FF034603E0FFF741FF0346521E012B2E
:1007400001D1002AF7D102B90523184600BD0000E7
:1007500008B505480090009800F008F800216846A8
:1007600000F034F800F0BAFE00C0010800BF1249E2
:10077000C96801F001010029F9D10F49096941F067
:1007800002010D4A116111464861096941F04001B9
:10079000116100BF0849C96801F001010029F9D1C0
:1007A0000549096921F00201034A116111460969ED
:1007B00021F04001116170470020024001460A68A3
:1007C00010680A68121D0A607047000000BF134AD3
:1007D000D26802F00102002AF9D1104A126942F0EF
:1007E00001020E4B1A6100BF0C4AD26802F00102EE
:1007F000002AF9D1026811800268921C026000BFD1
:10080000064AD26802F00102002AF9D1034A1269AD
:1008100022F00102014B1A617047000000200240E3
:100820004FF0E021096921F004014FF0E02211614D
:10083000C21700EB5272C2F3C702074B1A70194677
:10084000097801EB4102C2EBC1114FF6FF7202EAD7
:10085000C101024A11807047000000200200002000
:1008600010B50121082000F0B3F8012003490880E9
:100870002820C870024800F005F810BD04000020D0
:10088000000C01402DE9F041024600250026002021
:1008900000230024002791F803C00CF00F0591F805
:1008A00003C00CF0100CBCF1000F03D091F802C093
:1008B0004CEA050591F800C0BCF1000F31D0146876
:1008C00000202BE04FF0010C0CFA00F3B1F800C04F
:1008D0000CEA03069E4220D183004FF00F0C0CFA65
:1008E00003F7BC4305FA03FC4CEA040491F803C087
:1008F000BCF1280F06D14FF0010C0CFA00FCC2F835
:1009000014C00AE091F803C0BCF1480F05D14FF0C4
:10091000010C0CFA00FCC2F810C0401C0828D1D30E
:100920001460B1F800C0BCF1FF0F34DD5468002042
:100930002EE000F1080C4FF0010808FA0CF3B1F8B2
:1009400000C00CEA03069E4221D183004FF00F0C39
:100950000CFA03F7BC4305FA03FC4CEA040491F8D3
:1009600003C0BCF1280F05D100F1080C08FA0CF8FF
:10097000C2F8148091F803C0BCF1480F07D100F110
:10098000080C4FF0010808FA0CF8C2F81080401C5F
:100990000828CED35460BDE8F08101460020C1F3A1
:1009A00009021AB1012202EB912000E0880A704787
:1009B00029B1064AD2690243044BDA6104E0034AD2
:1009C000D2698243014BDA61704700000010024097
:1009D00029B1064A92690243044B9A6104E0034A32
:1009E00092698243014B9A617047000000100240F7
:1009F00030B500210022002400232D4D6D6805F044
:100A00000C0121B1042905D0082923D105E0294D85
:100A1000056022E0274D05601FE0254D6D6805F457
:100A20007012234D6D6805F48034022505EB924267
:100A30001CB9214D554305600BE01D4D6D6805F453
:100A400000351DB11C4D5543056002E0194D55435D
:100A5000056002E0174D056000BF00BF144D6D68D2
:100A600005F0F0010909154D6B5C0568DD40456036
:100A70000F4D6D6805F4E061090A104D6B5C456827
:100A8000DD4085600A4D6D6805F46051C90A0B4D63
:100A90006B5C4568DD40C560054D6D6805F44041FF
:100AA000890B074D6B5CC568B5FBF3F5056130BD7F
:100AB0000010024000127A0000093D00680000208A
:100AC0007800002010B500F001F810BD0CB5002032
:100AD000019000903348006840F48030314908604C
:100AE00000BF3048006800F4003000900198401CBE
:100AF0000190009818B90198B0F5A06FF1D129487C
:100B0000006800F4003010B10120009001E00020E6
:100B100000900098012843D12348006840F010005D
:100B2000214908600846006820F003000860084674
:100B3000006840F0020008601A484068194948609F
:100B40000846406848600846406840F48060486055
:100B50000846406820F47C1048600846406840F42D
:100B6000E81048600846006840F08070086000BFE8
:100B70000C48006800F000700028F9D0094840686F
:100B800020F00300074948600846406840F0020032
:100B9000486000BF0348406800F00C000828F9D105
:100BA0000CBD0000001002400020024010B50021E2
:100BB00000200022214B5B6803F00C0121B10429C5
:100BC00006D0082928D107E01D4B1E4C236027E0E2
:100BD0001B4B1C4C236023E0184B5B6803F4701024
:100BE000164B5B6803F48032022303EB904022B97A
:100BF000154B4343134C23600DE0104B5B6803F42B
:100C0000003323B1104B43430E4C236003E00C4BE5
:100C100043430C4C236003E0094B0A4C236000BFA4
:100C200000BF064B5B68C3F30313084CE15C054B44
:100C30001B68CB40034C236010BD00000010024035
:100C400000127A007C00002000093D008000002096
:100C500010B51348006840F00100114908600846CB
:100C60004068104908400E494860084600680E492F
:100C700008400B4908600846006820F4802008609E
:100C80000846406820F4FE0048604FF41F0088606A
:100C9000FFF718FF4FF000600449086010BD000026
:100CA000001002400000FFF8FFFFF6FE08ED00E034
:100CB00010B50121880700F02CF890B10B4800789E
:100CC00001280BD10A480068401C09490860084601
:100CD00000680F2805D1FFF73BFD02E00020044922
:100CE00008600121880700F005F810BD3C000020D5
:100CF00064000020CA430282704721B1028842F09A
:100D00000102028004E002884FF6FE731A4002805E
:100D1000704730B50246002000230024158A05EAFA
:100D20000103958905EA010413B10CB1012000E02B
:100D3000002030BD1AB183890B43838102E083898F
:100D40008B43838170470000002202881D4B98422C
:100D50000ED01D4B98420BD0B0F1804F08D01B4BEA
:100D6000984205D01A4B984202D01A4B984204D1AF
:100D70004FF68F731A404B881A43174B984207D08F
:100D8000164B984204D04FF6FF431A40CB881A43C3
:100D900002808B8883850B8803850A4B98420BD091
:100DA000094B984208D00E4B984205D00D4B984203
:100DB00002D00D4B984201D10B7A03860123838226
:100DC00070470000002C0140003401400004004046
:100DD00000080040000C00400010004000140040DB
:100DE0000040014000440140004801400EB501218F
:100DF0000846FFF7DDFD0020ADF8020040F2CF709D
:100E0000ADF8000048F69F40ADF804000020ADF8B2
:100E100006008DF8080069464FF08040FFF794FF08
:100E2000012211469007FFF785FF1C2000280DDBEB
:100E300000BF00BF00F01F02012191404209920053
:100E400002F1E022C2F8001100BF00BF00BF012183
:100E50008807FFF752FF0EBD38B540F2255176489E
:100E600000F049FA00287DD0734800F0FFFAC4B2C0
:100E70000020724908607248007806281CD2DFE81A
:100E800000F0031C34567EB4AA2C05D0FFF74AFAB2
:100E90006CA000F007FB0FE0FFF744FA012068495F
:100EA00008706D48B0F80A016B490C540846B0F858
:100EB0000A01401CA1F80A01B5E00220604908704F
:100EC0006548B0F80A0164490C541CB90120634913
:100ED000088002E00020614908805F48B0F80A01FC
:100EE000401C5D49A1F80A019DE05B48B0F80A0189
:100EF000042810DB032052490870574880788DF889
:100F000000005548C0788DF80100BDF80000524936
:100F1000A1F80C0100BF5048B0F80A014E490C542A
:100F20000846B0F80A01401CA1F80A017BE04A48D3
:100F3000B0F80A0148490C540846B0F80A01401CB0
:100F4000A1F80A010846B0F80A01001FB1F80C1117
:100F5000884213DB04203A49087000204049088089
:100F60003D4800E061E090F80A013C4A1278801A9E
:100F7000C1B23948FFF7B1F93A49088053E0364821
:100F8000B0F80A0134490C540846B0F80A01401C74
:100F9000A1F80A010846B0F80A01801EB1F80C1148
:100FA000401A042820DB2C48B0F80A01401E2A49C8
:100FB000085C8DF801000846B0F80A01801E085C44
:100FC0008DF80000BDF8000027490880BDF800003A
:100FD00024490988884203D105201949087002E094
:100FE00022A000F05FFA00BF1DE0BB2C05D0FFF788
:100FF000ABFA23A000F056FA14E00120164981F85C
:101000000E010846B0F80A010C540846B0F80A016F
:10101000401CA1F80A010020B1F80A110E4A5054F0
:10102000FFF77AF900BF00BF00BF40F22551024828
:1010300000F098F838BD000000380140640000203E
:10104000200000205374617274204672616D652027
:101050004552524F520A0000240100202A0000206D
:10106000260000202400002028000020436865633B
:101070006B2053756D204552524F520A00000000FC
:10108000456E64204672616D65204552524F520A8A
:101090000000000010B540F22551134800F02BF974
:1010A00000B3114800F0E2F91049087008460078D2
:1010B0000A280BD0084600780D490E4A1288885439
:1010C0000C480088401C0B4908800BE001200A49AD
:1010D0000880002107480088401E054A115400205E
:1010E0000449088010BD0000004400404800002072
:1010F000B4020020500000205200002010B540F241
:101100002551134800F0F7F800B3114800F0AEF98C
:1011100010490870084600780A280BD00846007865
:101120000D490E4A128888540C480088401C0B490F
:1011300008800BE001200A49088000210748008848
:10114000401E054A115400200449088010BD0000CB
:101150000048004048000020B40200205000002059
:101160005200002010B50022002340F66A14A1426C
:1011700000D100BF0A1201249440A3B2DC430480D2
:1011800010BD21B1828942F40052828104E082893B
:101190004DF6FF731A4082817047000010B586B08B
:1011A000044645480068454988420FD1012144F270
:1011B0000400FFF70DFC4FF4007041490880400027
:1011C000404908804048414908602DE03A4800689D
:1011D0003F49884211D101210420FFF7F9FB012189
:1011E0004804FFF7E5FB042035490880082035490D
:1011F000088035483549086016E02F4800683549B1
:10120000884211D101210820FFF7E2FB0121880467
:10121000FFF7CEFB4FF48060294908804000294940
:1012200008802D482949086018208DF817002448A7
:101230000088ADF8140003208DF8160005A9234896
:101240000068FFF71FFB04208DF817001D48008879
:10125000ADF8140003208DF8160005A91B4800689E
:10126000FFF710FB01940020ADF810000C20ADF842
:101270000E000020ADF80C00ADF80A00ADF8080033
:1012800001A90D48006800F085F8012240F22551BF
:101290000948006800F059F8252000F00EF92620D2
:1012A00000F00BF9272000F008F90121024800683E
:1012B000FFF767FF06B010BD440000200038014072
:1012C000540000205600002000080140400000208B
:1012D0000044004000480040000C0140024600204D
:1012E000B1F5007F00D100BF13880B400BB1012086
:1012F00000E00020704770B502460024002300255E
:10130000002040F66A16B14200D100BFC1F3421579
:1013100001F01F03012606FA03F3012D02D196897D
:10132000334006E0022D02D1168A334001E0968A4E
:1013300033400C12012606FA04F41688344013B127
:101340000CB1012000E0002070BDF0B50346002480
:1013500000260025002040F66A17B94200D100BFE0
:101360001846C1F3421401F01F06012707FA06F5DB
:10137000012C01D10C3004E0022C01D1103000E02E
:1013800014301AB107682F43076002E00768AF43C3
:101390000760F0BD2DE9F04786B005460E460024F3
:1013A000A24600BFA1460027B08900B100BF2F466A
:1013B0002C8A4CF6FF700440F08804432C82AC89E0
:1013C0004EF6F3100440B088318908437189084310
:1013D0000443AC81AC8A4FF6FF400440B08904431B
:1013E000AC8201A8FFF704FB1F48874202D1DDF859
:1013F00010A001E0DDF80CA0A88900F4004040B185
:101400000AEBCA0000EB0A1031684900B0FBF1F8A2
:1014100007E00AEBCA0000EB0A1031688900B0FB54
:10142000F1F86420B8FBF0F004012009642101FB0D
:101430001089A88900F4004040B1322000EBC900B7
:10144000B0FBF1F000F00700044308E0322000EBAD
:1014500009106421B0FBF1F000F00F0004432C816F
:1014600006B0BDE8F08700000038014001468888DA
:10147000C0F308007047000010B504462146064836
:10148000006800F00BF800BF802103480068FFF7F8
:1014900025FF0028F8D010BD44000020C1F3080249
:1014A0008280704710B5044603E014F8010BFFF783
:1014B000E3FF20780028F8D110BD00280DDB00BF25
:1014C00000BF00F01F02012191404209920002F189
:1014D000E022C2F8001100BF00BF7047BFF34F8F7A
:1014E0000648006800F4E06005490843001D034910
:1014F0000860BFF34F8F00BF00BFFDE70CED00E0B9
:101500000000FA0510B5044600202549254A126856
:101510008854012144F20500FFF75AFA4FF4007095
:10152000214908801820C870032088701F48FFF7E1
:10153000A9F94FF480601C4908800420C87003207A
:1015400088701A48FFF79EF901211948FFF719FE24
:1015500018480460002017498880C8800C20488102
:101560000020888108811248FFF714FF012240F211
:1015700025510F48FFF7E9FE252000280DDB00BFAD
:1015800000BF00F01F02012191404209920002F1C8
:10159000E022C2F8001100BF00BF00BF10BD000074
:1015A00090000020140000201A00002000080140D4
:1015B000003801401401002070B5044625686068B9
:1015C000044908602068FEF7DFFD02480068804794
:1015D00070BD000008000020114CFFF739FBFFF739
:1015E000E5FAFFF73DF94820FFF71AF94FF41650D6
:1015F000FFF788FF4FF41650FFF7D0FDFEF794FF7A
:10160000FFF7F4FB0BE020780649087008460078E5
:1016100010B1FEF7A9FF02E00348FFF7CDFFF2E7A4
:1016200000C001083C000020004000084C160008E3
:10163000000000209000000028010008DC160008CF
:1016400090000020803300004401000800000000EA
:10165000000000000000000000000000000000008A
:101660000000000000000000000000000001000079
:10167000000000000000000000000000000000006A
:1016800000800008000000000000000000000000D2
:1016900000440040000000000000000000000000C6
:1016A0000000000048000000E80300000000000007
:1016B0000000000000000000010203040102030416
:1016C000060708090204060800A24A0400000000F8
:0C16D000000000000102030406070809E6
:04000005080001915D
:00000001FF
