:020000040800F2
:100000009008002001010008431000083510000886
:10001000411000086D0100083513000800000000C1
:100020000000000000000000000000004710000871
:100030006F0100080000000045100008491000088A
:100040001B0100081B0100081B0100081B01000820
:100050001B0100081B0100081B0100081B01000810
:100060001B0100081B0100081B0100081B01000800
:100070001B0100081B0100081B0100081B010008F0
:100080001B0100081B0100081B0100081B010008E0
:100090001B0100081B0100081B0100081B010008D0
:1000A0001B0100081B0100081B0100081B010008C0
:1000B0001B0100081B0100081B0100081B010008B0
:1000C0001B0100081B0100081B0100081B010008A0
:1000D0001B0100081B010008291300081B01000870
:1000E0001B0100081B0100081B010008DFF80CD0F1
:1000F00000F02AF80048004711140008900800207A
:100100000648804706480047FEE7FEE7FEE7FEE7B1
:10011000FEE7FEE7FEE7FEE7FEE7FEE79D100008CC
:10012000ED000008D2B201E000F8012B491EFBD21D
:1001300070470022F6E710B513460A4604461946F2
:10014000FFF7F0FF204610BD064C074D06E0E068C3
:1001500040F0010394E8070098471034AC42F6D30E
:10016000FFF7C8FFC4140008E4140008FEE7704756
:1001700010B5044600F078F80D49C868C007FCD1F6
:10018000086940F0020008614C61086940F04000D5
:100190000861C868C007FCD1086920F00100086147
:1001A000086920F002000861BDE8104000F052B874
:1001B0000020024000F04EB800F056B810B590F89C
:1001C00021100024022903D00421816301243DE091
:1001D00001680A6822F00E020A6001680A6822F0CB
:1001E00001020A601A4A0168914201D1012121E00D
:1001F000174A1432914201D110211BE0144A2832CF
:10020000914201D1891515E0114A3C32914201D148
:1002100089140FE00E4A5032914202D14FF48031DE
:1002200008E00B4A6432914202D14FF4801101E0A0
:100230004FF08071064A083A5160012180F8211080
:10024000002180F82010416B01B18847204610BD85
:10025000080002400348016941F08001016100206B
:100260007047000000200240064900200A6912067B
:1002700007D5054A4A60054A4A600969090600D55A
:10028000012070470020024023016745AB89EFCD74
:100290002DE9F84FDFF8B891002409F1040A0AF1BA
:1002A000040B23460F270BF1040EC9E00125A540DE
:1002B0002A40AA427DD1674ED1F804C0ACEB0608B3
:1002C000B44532D014DCBCF1030F3AD009DCBCF1E8
:1002D000000F2AD0BCF1010F1CD0BCF1020F31D1AC
:1002E0001DE0BCF1110F17D0BCF1120F2AD119E09B
:1002F000B8F5881F19D006DCB8F5803F15D0B8F5E1
:10030000801F1FD111E0B8F5001F0ED0B8F5041FF3
:1003100018D10AE0CB6815E0CB681B1D12E0CB6852
:1003200008330FE0CB680C330CE08B682BB1012B4A
:100330004FF0080303D0456104E0042302E00561A7
:1003400000E00023FF2A01D8064601E000F1040680
:100350004FEA840501D9A5F12005D6F8008007FAF7
:1003600005FC28EA0C0803FA05F548EA0508C6F872
:1003700000804D68ED0062D5374DAE6946F001064C
:10038000AE61AD6924F0030605F001050095334D1B
:1003900006EB050CDCF80850A607360F07FA06F83E
:1003A00025EA0805DFF8B880404503D14FF0000882
:1003B00017E044E0DFF8AC80404502D14FF001087F
:1003C0000FE0DFF8A480404502D14FF0020808E0BA
:1003D000DFF89880404502D14FF0030801E04FF06C
:1003E000040808FA06F848EA0508CCF808804D68C1
:1003F000D9F80060ED034D4601D5164300E0964361
:100400002E604D68DAF80060AD03554601D51643FD
:1004100000E096432E604D68DBF80060ED025D461B
:1004200001D5164300E096432E604D68DEF800606B
:10043000AD02754601D5164300E096432E60641C5C
:100440000D682A46E5407FF431AFBDE8F88F000023
:1004500000040140000011100010024000000140A3
:1004600000080140000C0140001001400014014050
:1004700001488068704700001C0000200248816825
:1004800002781144816070471C000020074810B5B5
:10049000016841F010010160032000F06DF80020B8
:1004A00000F006F800F024F8002010BD0020024003
:1004B00070B50D4D04464FF47A712878B1FBF0F019
:1004C0000A490968B1FBF0F000F052FB48B9102C62
:1004D00007D200222146501E00F02EF800206C604A
:1004E00070BD012070BD00001C000020280000200D
:1004F000094808B5816941F001018161816901F014
:1005000001010091C16941F08051C161C06900F0F1
:100510008050009008BD000000100240002809DB58
:1005200000F01F02012191404009800000F1E0200D
:10053000C0F8001170470000F0B40E4B1B680C4669
:10054000C3F30223C3F10705042D00D90425191DA7
:10055000072901D2002300E0DB1E012606FA05F17F
:10056000491E214099409E40761E16403143F0BC02
:1005700000F022BF0CED00E0064900F00702086819
:100580004FF6FF03184040EA0220034A1043086078
:10059000704700000CED00E00000FA052DE9F0477F
:1005A0000F46050061D0434E306800F00700B842A6
:1005B00009D2306820F0070038433060306800F01E
:1005C0000700B84251D128683B4C810712D540073B
:1005D00003D5606840F4E06060602878000703D5C8
:1005E000606840F4605060606068A96820F0F000C6
:1005F000084360602878C00728D06868012810D0B8
:100600002168022810D0890700292EDA616821F0BC
:10061000030101436160FFF72BFF804641F28839F7
:100620000DE021688903EFE78901EDE7FFF720FF7F
:10063000A0EB0801494502D90320BDE8F0876068B6
:10064000696800F00C00B0EB810FEFD1306800F06A
:100650000700B8420BD9306820F0070038433060FB
:10066000306800F00700B84201D00120E5E72878A3
:10067000400705D56068E96820F4E06008436060E1
:100680002878000706D56068296920F4605040EAA0
:10069000C100606000F0A6F86168084AC1F3031168
:1006A000515CC8400649086006480068FFF700FF33
:1006B0000020C2E70020024000100240AC140008F5
:1006C00028000020200000202DE9F041FFF7D0FE97
:1006D000304C0546206840F00100206005E000BF76
:1006E000FFF7C6FE401B022843D820688007F7D5D5
:1006F000206820F0F80040F080002060FFF7B8FE8E
:1007000000250646656041F2883704E0FFF7B0FE39
:10071000801BB8422DD8606810F00C0FF6D11F492D
:100720001D4808601E480068FFF7C2FE10B1012096
:10073000BDE8F081FFF79CFE0646206820F080703F
:10074000206004E0FFF794FE801B022811D8206887
:100750008001F7D46560FFF78BFE0646206820F421
:100760001020206007E000BFFFF782FE801B642896
:1007700001D90320DCE720688003F5D4206820F449
:1007800080202060606A40F080706062A560002078
:10079000CEE700000010024000127A00280000207E
:1007A000200000200448054900684968044AC1F354
:1007B0000221515CC8407047280000200010024010
:1007C000BC1400080448054900684968044AC1F39C
:1007D000C221515CC8407047280000200010024030
:1007E000BC14000812A185B00FC98DE80F0014A039
:1007F000144A006804905168134801F00C03042B5C
:1008000010D0082B0ED1C1F38343C9031DF8030098
:100810000AD5516804AAC1F34041515C0A4A5043C9
:10082000B0FBF1F005B0704708494843FAE7000013
:1008300002030405060708090A0B0C0D0E0F101021
:10084000010200000010024000127A0000093D0081
:100850002DE9F84F040070D02078C04DC00749D072
:100860006868C0F38100012807D06868C0F3810080
:10087000022809D16868C00306D52868800339D5E5
:1008800060680028E7D035E06068B0F5803F0BD0A5
:1008900010B1B0F5A02F11D0286820F48030286066
:1008A000286820F4802002E0286840F48030286026
:1008B000606890B1FFF7DCFD06460AE0286840F466
:1008C00080202860F0E700BFFFF7D2FD801B64287E
:1008D00073D828688003F7D50CE0FFF7C9FD0646FA
:1008E00005E000BFFFF7C4FD801B6428F0D828682E
:1008F0008003F7D420789A4E80074FF001094FF01B
:10090000000839D5686810F00C0F07D06868C0F38C
:100910008100022809D16868C00306D428688007CE
:1009200014D52069012808D110E02069B0B1C6F8BB
:100930000090FFF79DFD074605E00AE1FFF798FDEF
:10094000C01B0228C4D828688007F7D528686169C9
:1009500020F0F80040EAC10028600DE0C6F80080F1
:10096000FFF786FD074604E0FFF782FDC01B022863
:1009700023D828688007F7D4207800072CD5794839
:10098000A169D9B1C0F80090FFF772FD074604E0F5
:10099000FFF76EFDC01B02280FD8686A8007F7D5E5
:1009A00071484FF4FA510068B0FBF1F0009000BFBD
:1009B0000098411E0091FAD20EE080E0C0F800805D
:1009C000FFF756FD074604E0FFF752FDC01B022863
:1009D00075D8686A8007F7D42078400760D5E86941
:1009E0000027C00008D4E86940F08050E861E86959
:1009F000012700F0805000905C480168C90513D4BD
:100A00000168834641F480710160FFF731FD824641
:100A100006E000BFFFF72CFDA0EB0A0064284ED8CB
:100A2000DBF80000C005F5D5E06801280AD008B160
:100A3000052813D0286A20F001002862286A20F0D7
:100A4000040002E0286A40F001002862E06841F2F8
:100A5000883B98B1FFF70CFD82460BE0286A40F016
:100A600004002862EEE700BFFFF702FDA0EB0A01D9
:100A700059455AD8286A8007F6D50CE0FFF7F8FCEC
:100A8000824605E0FFF7F4FCA0EB0A0159454CD87B
:100A9000286A8007F6D41FB1E86920F08050E86129
:100AA000E06988B36968C1F38101022944D0022852
:100AB000C6F8608004D0FFF7DBFC044638E034E081
:100AC000FFF7D6FC074604E0FFF7D2FCC01B022864
:100AD0002BD828688001F7D4206AB0F5803F05D173
:100AE0006868A16820F4003008436860D4E9080110
:100AF0000843696821F4741108436860C6F860907F
:100B0000FFF7B6FC044606E025E000BFFFF7B0FCA7
:100B1000001B022809D828688001F7D51BE000BF18
:100B2000FFF7A6FC001B022802D90320BDE8F88FBE
:100B300028688001F4D40EE00128F7D06868226AA2
:100B400000F48031914204D1616A00F4701088424F
:100B500001D00120EAE70020E8E700000010024091
:100B60000000424280044242280000200070004001
:100B700010B5401EB0F1807F01D3012010BD4FF0B1
:100B8000E02460610F21601700F016FC0020A061D6
:100B900007202061002010BD7047000070B502687A
:100BA00004461068D168536910F00F0F50D003F05D
:100BB000010501F4907635435DD0C20705D0CA0522
:100BC00003D5E26B42F00102E263420705D5DA0782
:100BD00003D0E26B42F00202E263820705D5DA0736
:100BE00003D0E26B42F00402E263020705D5DA07A4
:100BF00003D0E26B42F00802E263E26B002A33D0DA
:100C0000800604D5880602D5204600F081FA2068C7
:100C10004069E16BC0F38010090700D428B3204677
:100C200000F068FA2068416949061AD5416921F047
:100C300040014161606BA0B11B494163606BFFF7EC
:100C4000BDFA002810D0606B416BBDE870400847CA
:100C5000830610D58B060ED52046BDE8704000F007
:100C600057BA2046FFF798FF70BD2046FFF794FF64
:100C70000020E06370BD030606D50B0604D52046B0
:100C8000BDE8704000F0ECBA4006F3D54806F1D557
:100C9000D168204621F04001D160202184F839102C
:100CA00000F0C7F970BD0000E510000870B5040041
:100CB00004D094F83900002510B106E0012070BD81
:100CC00084F83850204600F023F8242084F83900B6
:100CD0002068C16821F40051C160204600F064FA28
:100CE0002068016921F4904101612068416921F087
:100CF0002A0141612068C16841F40051C160E56387
:100D0000202084F8390084F83A00002070BD0000EB
:100D100030B585B0002400940194029403940068D7
:100D2000184988422BD11848C16941F40031C1618A
:100D3000C16901F400310491816941F004018161CC
:100D40008069124D00F004000490042000900220FD
:100D500001900320039069462846FFF799FA08207E
:100D6000CDE90004694628460294FFF791FA002273
:100D700011462620FFF7E0FB2620FFF7CFFB05B04A
:100D800030BD000000440040001002400008014057
:100D900090F83A30202B22D1F9B1F2B190F83830E6
:100DA000012B1CD081628285C2850021C163222271
:100DB00080F83A2080F838100168CA6842F48072DE
:100DC000CA6001684A6942F001024A610068C1686C
:100DD00041F02001C16000207047012070470220CF
:100DE000704700002DE9F041564C0127002520787E
:100DF000BE02A0B101286FD1606901284CD0E06823
:100E000000F58060E060A16800F580628A426DD2E2
:100E10004D493246A1F14000FFF7BAFF6EE04B4961
:100E20006068A2780A54401C60600A2A08D0BDE8B5
:100E3000F041444944480122891C4038FFF7A8BFCB
:100E400027700122A5600823E560801E6060C4E968
:100E5000043511D00B5C3D2B0AD0A568303B03FB59
:100E6000025302EB82025200401EC4E90103F1D199
:100E7000A0683246904201D8208982B23249A1F15D
:100E80004000FFF785FFBDE8F0412F4864230A22A8
:100E90002FA1403800F070B82A492B480122891C44
:100EA0004038FFF775FF3046216900F045FAA8B1D8
:100EB0002548257064230E2228A1403800F05CF8F4
:100EC000204921480122891C4038FFF761FF00BFFB
:100ED00000F092FA25706770BDE8F0811A4864232B
:100EE0000B2222A1403800F047F8F1E7081A164912
:100EF00082B2A1F14000FFF74BFF676130462169E4
:100F000000F01AFAA8B11048257064230E2213A12C
:100F1000403800F031F80B490B480122891C403859
:100F2000FFF736FF2069401C2061BDE8F04100F06A
:100F300063BA054864230B220CA1403800F01CF86A
:100F4000F0E70000000000206C0000206C0400208E
:100F50004F4B204D454E20210D0A000057726974F9
:100F6000652046616C6C20210D0A000052656164A9
:100F7000204F4B20210D0A002DE9F843044690F83C
:100F800039001F4616460D46202850D1A5B19EB106
:100F900094F8380001284AD0012084F838004FF036
:100FA0000008C4F83C80212084F83900FFF760FA7B
:100FB000A6848146E68426E00120BDE8F883E08C23
:100FC000401EE084A0684B46B0F5805F4FF0000201
:100FD0004FF080012046009703D000F072F9E8B985
:100FE0000DE000F06EF9C8B928882168C0F3080048
:100FF0004860206908B16D1C05E0AD1C03E0216864
:1010000015F8010B4860E08C0028D8D14B4600222F
:1010100040212046009700F054F908B10320CCE7A6
:10102000202084F8390084F838800020C5E70220A9
:10103000C3E77047014901200870FEE7180000204F
:10104000FEE7704770477047FFF718BA30B58FB0AA
:1010500028216846FFF76DF814210AA8FFF769F800
:1010600001210804CDE90010002402940225049116
:10107000CDE907504FF4E01009906846FFF7E8FB10
:101080000F20CDE90A056802CDE90C4002210AA82B
:101090000E94FFF783FA0FB030BD00000D480168D1
:1010A00041F00101016041680B4A11404160016853
:1010B0000A4A11400160016821F480210160416801
:1010C00021F4FE0141604FF41F0181600449C00317
:1010D00008607047001002400000FFF8FFFFF6FEB6
:1010E00008ED00E010B5406A0021C185C184FFF71A
:1010F00053FD10BD0168CA6822F49072CA6001688D
:101100004A6922F001024A61202180F83A107047B2
:1011100010B590F83A10222901D0022010BD816844
:10112000B1F5805F11D00169002901681FD04968BD
:1011300001F07F03816A4A1C82620B70C18D491ED7
:101140000904090CC18518D02BE00269816A002AC4
:101150000268526805D0D2B20A80816A491C816255
:10116000ECE7C2F308020A80816A891CF7E74A6843
:10117000816A4B1C83620A70E0E70168CA6822F04A
:101180002002CA600168CA6822F48072CA600168DD
:101190004A6922F001024A61202180F83A10FFF7E3
:1011A00021FE002010BD00002DE9F041044600683A
:1011B0000169E26821F44051114301612169A0688D
:1011C0000843616908432168CA6841F20C639A4385
:1011D0000243CA6020684169A26921F44071114349
:1011E00041611E49206864253226884202D1FFF7FA
:1011F000E9FA01E0FFF7D6FA00EBC00101EB0011BC
:1012000060686FF018078000B1FBF0F2B2FBF5F2F6
:10121000B1FBF0F37A4303EB8202B1FBF0F306EB90
:101220000212B2FBF5F2B3FBF5F302F0F00202EBAF
:101230000312B1FBF0F3B1FBF0F0B0FBF5F0784333
:1012400003EB800006EB0010B0FBF5F0216800F026
:101250000F0010448860BDE8F081000000380140B4
:1012600090F83910212901D0022070478168B1F52A
:10127000805F016A0BD04A1C0262026809785160E3
:10128000C18C491E0904090CC1840ED017E00988DD
:101290000268C1F30801516001690029016A02D0A6
:1012A000491C0162ECE7891CFBE70168CA6822F06F
:1012B0008002CA600068C16841F04001C16000203E
:1012C00070472DE9F041984617460E460446069DA4
:1012D0001DE0681C1BD02DB1FFF7CAF8A0EB080079
:1012E000A84214D92068C16821F4D071C160206877
:1012F000416921F001014161202084F8390084F81E
:101300003A00002084F838000320BDE8F08120680E
:10131000006836EA000004D00020B842D9D000208E
:10132000F3E70120F9E700000148FFF737BC0000B0
:101330002C000020FEE7000070B505464FF000606D
:1013400000EB81242046FEF713FFFEF735FF002057
:101350001749184A14E000BF0E6904EB400346F039
:1013600001060E61CE68F607FCD132F810601E80CF
:10137000CB68DB07FCD10B6923F001030B61401C38
:10138000B0EB550FE8D300200BE000BF32F810306F
:1013900034F810108B4203D0FEF70CFF012070BD13
:1013A000401CB0EB550FF1D3FEF704FF002070BDD9
:1013B000002002406C0000200907090E002804DB11
:1013C00000F1E02080F80014704700F00F0000F1F9
:1013D000E02080F8141D704702E008C8121F08C101
:1013E000002AFAD170477047002001E001C1121FA6
:1013F000002AFBD17047000000200449FF224FF46F
:1014000080630A54401C9842FBDB70476C0000204C
:1014100008B5FFF73BF8FFF719FE1F48816941F057
:1014200020018161816901F020010091816941F011
:10143000040181618069194900F004000090184896
:10144000002401604FF41651C0E901140C21C4605E
:10145000C0E904418461C461FFF728FC01221149FD
:101460000F48FFF795FCFFF7C7FF0E4E0E4FB61E55
:101470004FF0E02570780128FCD10097FFF724F9A0
:101480002C616C61AC6172B6009800994068096883
:1014900081F308888047EDE70010024000440040D7
:1014A0002C000020020000200020000800000000A6
:1014B0000000000001020304060708090000000004
:1014C00001020304E4140008000000202C000000C6
:1014D000D8130008101500082C0000206408000034
:1014E000E8130008000000000000000000000000F9
:1014F00000000000080000000000000000000000E4
:101500000100000010000000000000000024F400B2
:04000005080000ED02
:00000001FF
