:020000040800F2
:1040000050070020894100089141000893410008B1
:104010009541000897410008994100080000000000
:104020000000000000000000000000009B410008AC
:104030009D410008000000009F410008A1410008C8
:10404000A3410008A3410008A3410008A3410008C0
:10405000A3410008A3410008A3410008A3410008B0
:10406000A3410008A3410008A3410008A3410008A0
:10407000A3410008A3410008A3410008A341000890
:10408000A3410008A3410008A3410008A341000880
:10409000A3410008A3410008A3410008A341000870
:1040A000A3410008A3410008A3410008A341000860
:1040B000C54A0008A3410008A3410008A341000825
:1040C000A3410008A3410008A3410008A341000840
:1040D000A3410008194D0008A3410008A3410008AE
:1040E000A3410008A3410008A341000800F002F822
:1040F00000F03AF80AA090E8000C82448344AAF148
:104100000107DA4501D100F02FF8AFF2090EBAE845
:104110000F0013F0010F18BFFB1A43F001031847FB
:104120004C1100006C110000103A24BF78C878C10F
:10413000FAD8520724BF30C830C144BF04680C60AD
:10414000704700000023002400250026103A28BFF5
:1041500078C1FBD8520728BF30C148BF0B607047F9
:104160001FB51FBD10B510BD00F031F81146FFF7A7
:10417000F7FF01F01DF800F04FF803B4FFF7F2FF6E
:1041800003BC00F057F80000094880470948004781
:10419000FEE7FEE7FEE7FEE7FEE7FEE7FEE7FEE7F7
:1041A000FEE7FEE704480549054A064B7047000054
:1041B000654A0008ED40000850010020500700202B
:1041C0005003002050030020704770477047754629
:1041D00000F02CF8AE4605006946534620F0070073
:1041E000854618B020B5FFF7DDFFBDE820404FF051
:1041F00000064FF000074FF000084FF0000B21F0D1
:104200000701AC46ACE8C009ACE8C009ACE8C0099D
:10421000ACE8C0098D46704710B50446AFF3008086
:104220002046BDE81040FFF7A8BF000000487047D7
:10423000F000002001491820ABBEFEE72600020076
:104240007047000000BF1249C96801F00101002950
:10425000F9D10F49096941F002010D4A1161114676
:104260004861096941F04001116100BF0849C9680E
:1042700001F001010029F9D10549096921F0020184
:10428000034A11611146096921F04001116170472B
:104290000020024008B50D4800900098FFF7D2FFBB
:1042A0000121684600F018F800BFBFF34F8F08489F
:1042B000006800F4E06007490843001D04490860F5
:1042C000BFF34F8F00BF00BF00BFFDE700C0010874
:1042D0000CED00E00000FA0500BF134AD26802F0BE
:1042E0000102002AF9D1104A126942F001020E4B74
:1042F0001A6100BF0C4AD26802F00102002AF9D10B
:10430000026811800268921C026000BF064AD268EF
:1043100002F00102002AF9D1034A126922F00102D7
:10432000014B1A6170470000002002404FF0E0216D
:10433000096921F004014FF0E0221161C21700EB7E
:104340005272C2F3C702074B1A701946097801EB83
:104350004102C2EBC1114FF6FF7202EAC101024AEB
:1043600011807047000000200200002001460D4A25
:1043700012884A434FF0E0235A6100229A610122D9
:104380001A6100BF4FF0E022106900F001021AB17B
:1043900000F48032002AF5D000224FF0E0231A61A9
:1043A0009A6170470200002010B50121102000F032
:1043B00019FA0121082000F015FA4FF400500949BC
:1043C00008801020C87003208870074800F010F89B
:1043D0000120044908802820C870044800F008F82B
:1043E00010BD00000400002000100140000C01403E
:1043F0002DE9F0410246002500260020002300247C
:10440000002791F803C00CF00F0591F803C00CF0E1
:10441000100CBCF1000F03D091F802C04CEA050566
:1044200091F800C0BCF1000F31D0146800202BE0DF
:104430004FF0010C0CFA00F3B1F800C00CEA0306CF
:104440009E4220D183004FF00F0C0CFA03F7BC43BF
:1044500005FA03FC4CEA040491F803C0BCF1280FF0
:1044600006D14FF0010C0CFA00FCC2F814C00AE0AF
:1044700091F803C0BCF1480F05D14FF0010C0CFAC4
:1044800000FCC2F810C0401C0828D1D31460B1F859
:1044900000C0BCF1FF0F34DD546800202EE000F1B5
:1044A000080C4FF0010808FA0CF3B1F800C00CEA50
:1044B00003069E4221D183004FF00F0C0CFA03F744
:1044C000BC4305FA03FC4CEA040491F803C0BCF1B8
:1044D000280F05D100F1080C08FA0CF8C2F8148076
:1044E00091F803C0BCF1480F07D100F1080C4FF060
:1044F000010808FA0CF8C2F81080401C0828CED336
:104500005460BDE8F0810246002093680B400BB177
:10451000012000E0002070470AB1016100E0416124
:10452000704770B502460024002500230020958ABC
:10453000138B1B0445EA030626F07F4404EA0106B8
:104540008E4201D1012000E0002070BD21B102881F
:1045500042F00102028004E002884FF6FE731A4026
:104560000280704721B1028842F48072028004E028
:1045700002884FF6FF631A400280704721B102881B
:1045800042F40072028004E002884FF6FF531A40A2
:10459000028070472DE9F04385B004460D460026A1
:1045A000B1460427DFF8CC80A6884FF6C0700640DD
:1045B000684600F027F9DDF808802F48B8FBF0F0D6
:1045C0001FFA80F946EA0906A68020884FF6FE7198
:1045D0000840208000262949286888420CD828688D
:1045E0004000B8FBF0F087B2042F00DA04273E4306
:1045F00009F10100208427E0E8884BF6FF7188422A
:1046000006D1286800EB4000B8FBF0F087B209E063
:10461000286800EBC00101EB0010B8FBF0F087B296
:1046200047F48047C7F30B0008B947F0010747F488
:10463000004006434FF4967009FB00F04FF47A7186
:1046400090FBF1F0401C2084A683208840F00100FC
:10465000208026884FF6F5300640A88869890843EF
:1046600006432680A88929890843208105B0BDE832
:10467000F083000000127A0040420F00A086010083
:1046800012B141F0010102E04FF6FE7319400182C0
:10469000704701827047000000B585B001210820F5
:1046A00000F0A0F80121480500F08CF8C020ADF81A
:1046B00010001C208DF8130003208DF8120004A9AF
:1046C0000F48FFF795FE0020ADF80A004FF4804038
:1046D000ADF80C000B4800904BF6FF70ADF80600EB
:1046E0000020ADF80400ADF8080069460648FFF761
:1046F00051FF01210448FFF729FF05B000BD00006C
:10470000000C0140A08601000054004010B5332089
:1047100000F0CCFC0A20FFF729FE322000F0C6FC96
:104720003220FFF723FE282000F0C0FC3220FFF7E4
:104730001DFE012000F0BAFC3220FFF717FE062014
:1047400000F0B4FC3220FFF711FE0C2000F0AEFCAC
:104750003220FFF70BFE022000F0A8FC3220FFF70A
:1047600005FE10BD00B585B06020ADF804004FF423
:10477000FA70ADF80A000020ADF80C000120ADF889
:10478000060001A90D4800F0DDF901210B4800F0F9
:10479000B2F90121082000F025F818208DF8030057
:1047A0004FF46070ADF8000003208DF802006946F8
:1047B0000348FFF71DFE05B000BD000000080040E3
:1047C000000C014029B1064AD2690243044BDA6168
:1047D00004E0034AD2698243014BDA61704700006A
:1047E0000010024029B1064A92690243044B9A61C3
:1047F00004E0034A92698243014B9A6170470000CA
:104800000010024030B500210022002400232D4D6D
:104810006D6805F00C0121B1042905D0082923D1C8
:1048200005E0294D056022E0274D05601FE0254D7C
:104830006D6805F47012234D6D6805F4803402250F
:1048400005EB92421CB9214D554305600BE01D4D0F
:104850006D6805F400351DB11C4D5543056002E03F
:10486000194D5543056002E0174D056000BF00BFBC
:10487000144D6D6805F0F0010909154D6B5C056874
:10488000DD4045600F4D6D6805F4E061090A104D8B
:104890006B5C4568DD4085600A4D6D6805F46051CC
:1048A000C90A0B4D6B5C4568DD40C560054D6D6800
:1048B00005F44041890B074D6B5CC568B5FBF3F50A
:1048C000056130BD0010024000127A0000093D0071
:1048D000340000204400002010B500F001F810BDA5
:1048E0000CB50020019000903348006840F48030FF
:1048F0003149086000BF3048006800F40030009083
:104900000198401C0190009818B90198B0F5A06F6B
:10491000F1D12948006800F4003010B10120009066
:1049200001E0002000900098012843D1234800684E
:1049300040F01000214908600846006820F003009C
:1049400008600846006840F0020008601A484068A5
:10495000194948600846406848600846406840F485
:10496000806048600846406820F47C104860084633
:10497000406840F4E81048600846006840F08070E5
:10498000086000BF0C48006800F000700028F9D0F3
:104990000948406820F0030007494860084640681D
:1049A00040F00200486000BF0348406800F00C007F
:1049B0000828F9D10CBD0000001002400020024080
:1049C00010B5002100200022214B5B6803F00C0190
:1049D00021B1042906D0082928D107E01D4B1E4C1F
:1049E000236027E01B4B1C4C236023E0184B5B68C3
:1049F00003F47010164B5B6803F48032022303EB60
:104A0000904022B9154B4343134C23600DE0104BEB
:104A10005B6803F4003323B1104B43430E4C236017
:104A200003E00C4B43430C4C236003E0094B0A4C5E
:104A3000236000BF00BF064B5B68C3F30313084C41
:104A4000E15C054B1B68CB40034C236010BD0000AC
:104A50000010024000127A004800002000093D00CA
:104A60004C00002010B51248006840F001001049C9
:104A70000860084640680F4908400D4948600846EC
:104A800000680D4908400A4908600846006820F49B
:104A9000802008600846406820F4FE0048604FF41B
:104AA0001F008860FFF718FF04480549086010BD23
:104AB000001002400000FFF8FFFFF6FE0040000873
:104AC00008ED00E010B50121880700F020F838B1AA
:104AD0000648007808B9012000E00020034908706A
:104AE0000121880700F004F810BD00002C00002010
:104AF000CA430282704721B1028842F0010202805B
:104B000004E002884FF6FE731A400280704730B509
:104B10000246002000230024158A05EA0103958936
:104B200005EA010413B10CB1012000E0002030BD02
:104B30001AB183890B43838102E083898B4383818C
:104B40007047000070B5002200230024058C4EF64B
:104B5000FF7635400584038C8488828B48F6FF7588
:104B60002A404FF6FF452A400D884FF6FF7606EAA9
:104B700005252A434DF6FF752B400D8906EA0535BC
:104B80002B434D8806EA05352B430B4DA84202D036
:104B90000A4DA84208D14BF6FF752C408D894FF67F
:104BA000FF7606EA85152C4384808283CD88A0F8A1
:104BB0004050038470BD0000002C014000340140CF
:104BC000002202881D4B98420ED01D4B98420BD0FC
:104BD000B0F1804F08D01B4B984205D01A4B984239
:104BE00002D01A4B984204D14FF68F731A404B886B
:104BF0001A43174B984207D0164B984204D04FF6F1
:104C0000FF431A40CB881A4302808B8883850B8828
:104C100003850A4B98420BD0094B984208D00E4BA3
:104C2000984205D00D4B984202D00D4B984201D1CD
:104C30000B7A03860123838270470000002C014019
:104C4000003401400004004000080040000C004017
:104C500000100040001400400040014000440140AA
:104C60000048014000B587B001210420FFF7AAFDEC
:104C70000020ADF8060025480088401E80B2ADF83F
:104C8000040023480088401E80B2ADF808000020D0
:104C9000ADF80A008DF80C0001A91E48FFF790FF3F
:104CA00001210846FFF78EFD0020ADF8120040F20A
:104CB000CF70ADF8100048F69F40ADF8140000200A
:104CC000ADF816008DF8180004A94FF08040FFF7EA
:104CD00077FF012211469007FFF72AFF1C200028CA
:104CE0000DDB00BF00BF00F01F020121914042090F
:104CF000920002F1E022C2F8001100BF00BF00BF25
:104D000001218807FFF7F7FE07B000BD240000204F
:104D1000280000200008004010B540F2255124482A
:104D200000F07CF800283DD0214800F033F92149FB
:104D30000870084600780A2829D0084600781E49DD
:104D40001E4A1268885401201D4908701B480068DB
:104D500004280CD2184819490968415C1948174AB7
:104D60001268805C814202D0002015490870134807
:104D70000068032805D112480078012801D1FFF707
:104D800089FA0E480068401C0C4908600AE00020BF
:104D900009490A4A1268885401200B49087000200A
:104DA0000649086040F22551014800F00FF810BD97
:104DB000003801401C0000205C000020180000208A
:104DC0000C000020080000201400002010B5002274
:104DD000002340F66A14A14200D100BF0A12012448
:104DE0009440A3B2DC43048010BD21B1828942F417
:104DF0000052828104E082894DF6FF731A4082815D
:104E0000704702460020B1F5007F00D100BF138833
:104E10000B400BB1012000E00020704770B5024646
:104E2000002400230025002040F66A16B14200D17C
:104E300000BFC1F3421501F01F03012606FA03F378
:104E4000012D02D19689334006E0022D02D1168A47
:104E5000334001E0968A33400C12012606FA04F42E
:104E60001688344013B10CB1012000E0002070BD61
:104E7000F0B50346002400260025002040F66A17FE
:104E8000B94200D100BF1846C1F3421401F01F0619
:104E9000012707FA06F5012C01D10C3004E0022CA1
:104EA00001D1103000E014301AB107682F430760B9
:104EB00002E00768AF430760F0BD00002DE9F0474E
:104EC00086B005460E460024A24600BFA146002734
:104ED000B08900B100BF2F462C8A4CF6FF70044009
:104EE000F08804432C82AC894EF6F3100440B0885D
:104EF00031890843718908430443AC81AC8A4FF679
:104F0000FF400440B0890443AC8201A8FFF77AFC5B
:104F10001F48874202D1DDF810A001E0DDF80CA0A7
:104F2000A88900F4004040B10AEBCA0000EB0A1067
:104F300031684900B0FBF1F807E00AEBCA0000EB6A
:104F40000A1031688900B0FBF1F86420B8FBF0F07A
:104F500004012009642101FB1089A88900F40040A4
:104F600040B1322000EBC900B0FBF1F000F00700C7
:104F7000044308E0322000EB09106421B0FBF1F09B
:104F800000F00F0004432C8106B0BDE8F08700005C
:104F90000038014001468888C0F308007047C1F31B
:104FA000080282807047000010B50446012144F2D7
:104FB0000500FFF717FC4FF400701F490880182008
:104FC000C870032088701D48FFF712FA4FF4806004
:104FD000194908800420C870032088701748FFF71B
:104FE00007FA01211648FFF700FF16480460002069
:104FF00014498880C8800C2048810020888108815D
:105000000F48FFF75BFF012240F225510C48FFF7E4
:105010002FFF252000280DDB00BF00BF00F01F027E
:10502000012191404209920002F1E022C2F80011F0
:1050300000BF00BF00BF10BD1E00002000080140DF
:1050400000380140E000002010B5044603E020785D
:1050500000F00EF8641C20780028F8D110BD000084
:1050600010B50248FFF7F0FF10BD00005C00002003
:1050700010B5044621460548FFF791FF00BF802187
:105080000248FFF7BEFE0028F9D010BD00380140ED
:1050900005480078012804D1002003490870012048
:1050A00070470020FCE7000014000020F8B504461B
:1050B000002504F0F006F02000EA041746F00C008A
:1050C0008DF8000046F008008DF8010047F00C0054
:1050D0008DF8020047F008008DF8030000BF05E0DE
:1050E0001DF8050000F034F8681CC5B2042DF7DB8C
:1050F000F8BDF8B50446002504F0F006F02000EAFB
:10510000041746F00D008DF8000046F009008DF8F8
:10511000010047F00D008DF8020047F009008DF8FE
:10512000030000BF05E01DF8050000F011F8681C41
:10513000C5B2042DF7DBF8BD10B5044603E02078B6
:10514000FFF7D7FF641C20780028F8D110BD0000BD
:1051500010B5044601211348FFF704FA00BF1249B5
:105160001048FFF7DEF90028F9D000224E210D4843
:10517000FFF786FA00BF0D490A48FFF7D2F9002869
:10518000F9D021460748FFF784FA00BF0749891C78
:105190000448FFF7C6F90028F8D001210148FFF7BD
:1051A000EDF910BD0054004001000300820007002B
:1051B000FFF706FC4820FFF7B9F8FFF7F5F84FF4C2
:1051C0001650FFF7F1FEFFF74DFD012251031C4879
:1051D000FFF7A2F9FFF7C6FAFFF75EFAFFF796FAB4
:1051E00018A0FFF7A9FF29E0FFF752FF012804D11B
:1051F00017A0FFF729FFFFF733FF184802784FF495
:1052000000510F48FFF788F901211548FFF77BF996
:1052100088B100BFBFF34F8F1248006800F4E06010
:1052200011490843001D0F490860BFF34F8F00BFAD
:1052300000BF00BFFDE70120FFF798F8D4E70000AA
:105240000010014048656C6C6F20576F726C6400F1
:105250000A3C2D2D2D2D3E0A000000002C000020C0
:10526000000C01400CED00E00000FA058C52000833
:10527000000000205C00000028410008E8520008FF
:105280005C000020F406000044410008000000001B
:1052900000000000AA1011BB010000000000000087
:1052A00000000000000000000000000000000000FE
:1052B00048000000E80300000000000000000000BB
:1052C00000000000010203040102030406070809AC
:1052D0000204060800A24A040000000000000000CA
:0852E00001020304060708099E
:040000050800418925
:00000001FF
